:1000000022C03AC039C038C0AAC036C035C034C0DA
:1000100033C032C031C030C0EDC02EC02DC02CC0A6
:100020002BC02AC029C04079243019120278001050
:10003000010203040506070809FE00FF630A141EF7
:1000400028323C46505A11241FBECFEDCDBF10E0E0
:10005000A0E6B0E0E2EFF5E002C005900D92AA370D
:10006000B107D9F710E0AAE7B0E001C01D92AC38A3
:10007000B107E1F783D1BBC2C3CF80918300813048
:1000800009F06BC08091810087FD06C0209181003E
:1000900081E090E02A3014F080E090E08823E9F0DD
:1000A00080918100992787FD90958050904089D25A
:1000B00080937B0080917B00843620F480917B00CC
:1000C00081112AC0E0918100FF27E7FDF095E45CF3
:1000D000FF4FE491E0937B001FC0809181008E3F31
:1000E00059F480917B00815080937B0080917B004C
:1000F000811112C083E60EC0809181008F3F69F5A7
:1001000080917B008F5F80937B0080917B008436A1
:1001100018F081E080937B0081E0809385008DE67C
:1001200090E09093870080938600E0918600F091A4
:10013000870080818093880088EC86BF80B78061CB
:1001400080BF109284001092800010927F00109265
:100150007E001092830081E0089580E008951F9250
:100160000F920FB60F9211242F933F938F939F936B
:1001700080917B008823D1F080917F009091800056
:100180008433974151F41092800010927F00809147
:100190007B00815080937B0009C080917F0090910B
:1001A000800001969093800080937F0020917E00D4
:1001B0002130B9F480918A0090918B00803D974066
:1001C00039F42093890010928B0010928A0009C0A4
:1001D00080918A0090918B00019690938B00809380
:1001E0008A009F918F913F912F910F900FBE0F909A
:1001F0001F9018951F920F920FB60F9211242F93F4
:100200003F935F936F937F938F939F93EF93FF93AE
:1002100032B32091600081E090E0022E01C0880F8F
:100220000A94EAF78095832382BB213019F48CEF7E
:100230008093610030B399B389B330FF70C090FFF1
:1002400070C081FF70C032B381E090E0022E01C027
:10025000880F0A94EAF7382B32BB809160008F5FD9
:100260008093600085303CF19091610080917A002C
:100270009C3F09F46AC08F3F09F46CC08F5F809384
:100280007A0068C081E08093830010927A0085E054
:100290008093820007C080918200853019F482E04B
:1002A0008093830081E0809360008091620080935E
:1002B00081009093620080918400811151C08091EF
:1002C0008800882331F080918800815080938800D5
:1002D00047C0E0918600F091870080918500E80F8B
:1002E000F11D8081982F90788F3F39F481E08093C1
:1002F000840080B78F7E80BF33C0992329F090B7E8
:100300009F7E90BF819503C090B7906190BF80930E
:100310008800809185008F5F8093850021C030E048
:1003200003C031E001C032E0822F992787FD90950C
:10033000019763E070E027D1830F911D805D9F4F8F
:10034000FC018491809361007ECF8250823608F454
:1003500099CF9BCF80917A00853608F09CCFA2CFB1
:10036000FF91EF919F918F917F916F915F913F915D
:100370002F910F900FBE0F901F9018951ABA8FEF04
:100380008BBB87BB18BA8EE781BB8FE182BB82E053
:1003900080BF83BF12BE82E886BF1CBE1FBC89E03F
:1003A0008EBD1DBC1CBC15BC14BC87E28BBD80E19E
:1003B0008ABD19BC18BC80E689BF1DB880E888B921
:1003C00081E0809384009CEF9093810010928300E1
:1003D00095E09093820010927B0080937E00809144
:1003E0007B0080937C001092890010928B00109209
:1003F0008A0080917B002AE0622FD7D0E82FF0E0BE
:10040000EA5DFF4FE49080917B00CFD0E92FF0E0D0
:10041000EA5DFF4FA490789421E0FF24F394C7E6AF
:10042000D0E089E1D82E03E610E096E9B92E3AE053
:10043000C32E213019F5809189008130C9F42093B1
:100440008500D0938700C0938600E0918600F091EC
:100450008700808180938800D6BE80B7806180BF8E
:100460001092840010928B0010928A0010928900E2
:1004700004DE21E0882309F459C057C0FEDD8091D5
:100480008300823089F58091810087FD06C020912C
:10049000810081E090E02A3014F080E090E0882331
:1004A000E9F0F09285001093870000938600E091B8
:1004B0008600F0918700808180938800B6BE80B767
:1004C000806180BF1092840060917B0080918100E8
:1004D000992787FD9095805090407BD08091810036
:1004E000809382001092830080917B0081111DC057
:1004F000F0928500D0938700C0938600A09186007B
:10050000B09187008C9180938800D6BE80B78061BF
:1005100080BF1092840010928B0010928A0010927B
:100520008900F0927E0021E001C020E090917B00E4
:1005300080917C009817A9F080917B006C2D35D0BC
:10054000E82FF0E0EA5DFF4FE49080917B002DD032
:10055000E92FF0E0EA5DFF4FA49080917B0080934B
:100560007C00A8BAC79A89EF90E00197F1F700C024
:100570000000E8BA969A89EF90E00197F1F700C081
:100580000000969856CF5527002480FF02C0060E23
:10059000571F660F771F6115710521F09695879596
:1005A000009799F7952F802D0895991B79E004C045
:1005B000991F961708F0961B881F7A95C9F78095A2
:1005C0000895E199FECF1FBA8EBBE09A99278DB3AB
:1005D0000895262FE199FECF1CBA1FBA8EBB2DBB02
:1005E0000FB6F894E29AE19A0FBE01960895F89436
:0205F000FFCF3B
:1005F20001FCFC0AF60AFF14FD14FD14FF02FF01C0
:0A0602009619C8640163D00734178D
:00000001FF
