:1000000022C03AC039C038C038C036C035C034C04C
:1000100033C032C031C030C07BC02EC02DC02CC018
:100020002BC02AC029C0630A141E28323C46505AED
:10003000010203040506070809FE00FF4079243089
:1000400019120278001011241FBECFEDCDBF10E0B1
:10005000A0E6B0E0ECEEF5E002C005900D92AA3704
:10006000B107D9F710E0AAE7B0E001C01D92AC38A3
:10007000B107E1F779D1B8C2C3CF1F920F920FB683
:100080000F9211242F933F938F939F9380917B0026
:100090008823D1F080917F00909180008453974114
:1000A00051F41092800010927F0080917B0081506B
:1000B00080937B0009C080917F0090918000019621
:1000C0009093800080937F0020917E002130B9F4CE
:1000D00080918A0090918B00805D974039F4209345
:1000E000890010928B0010928A0009C080918A00CA
:1000F00090918B00019690938B0080938A009F9142
:100100008F913F912F910F900FBE0F901F901895D8
:100110001F920F920FB60F9211242F933F934F937C
:100120005F936F937F938F939F93AF93EF93FF931F
:1001300082B3A091770021E030E00A2E02C0220FA6
:10014000331F0A94E2F7922F9095982392BBA13027
:1001500019F48CEF8093790080B399B349B380FD93
:1001600002C040E007C090FD02C041E003C041FD75
:1001700011C042E08A2F992787FD909563E070E0D7
:10018000FFD1FC013397E40FF11DE05DFF4FE491D7
:10019000E093790082B3282B22BB8A2F8F5F809354
:1001A000770085304CF19091790080917A009C3FE6
:1001B00039F08F3F09F452C08F5F80937A004EC0B0
:1001C0008250823618F481E08093830010927A0086
:1001D00085E08093820007C080918200853019F409
:1001E00082E08093830081E08093770080917800A3
:1001F0008093810090937800809184008823A1F5FA
:1002000080918800882331F080918800815080930C
:1002100088002AC0E0918600F091870080918500D7
:10022000E80FF11DE081EF3F39F481E08093840015
:1002300080B78F7E80BF18C0E7FF05C080B78F7E74
:1002400080BFE19503C080B7806180BFE0938800E4
:10025000809185008F5F8093850006C080917A0031
:10026000853608F0B9CFBFCFFF91EF91AF919F9145
:100270008F917F916F915F914F913F912F910F904F
:100280000FBE0F901F90189580918300813009F068
:1002900069C08091810088232CF18091810090E0D9
:1002A0008A300CF091E09923E9F48091810099273C
:1002B00087FD90958050904081D180937B00809104
:1002C0007B00843620F480917B00882351F5E091F7
:1002D0008100FF27E7FDF095EA5DFF4FE491E09391
:1002E0007B001FC0809181008E3F59F480917B007C
:1002F000815080937B0080917B00882391F483E67A
:100300000EC0809181008F3F69F580917B008F5FE7
:1003100080937B0080917B00843618F081E080938D
:100320007B0081E0809385008BE690E090938700CE
:1003300080938600E0918600F09187008081809311
:10034000880088EC86BF80B7806180BF10928400EF
:100350001092800010927F0010927E001092830015
:1003600081E0089580E008958F929F92AF92BF92AE
:10037000CF92DF92EF92FF920F931F93CF93DF9371
:100380001ABA8FEF8BBB87BB18BA8EE781BB8FE1A0
:1003900082BB82E080BF83BF12BE82E886BF1CBEE4
:1003A0001FBC89E08EBD1DBC1CBC15BC14BC87E203
:1003B0008BBD80E18ABD19BC18BC80E689BF1DB821
:1003C00080E888B991E0909384008CEF809381005D
:1003D0001092830085E08093820010927B009093BE
:1003E0007E0080917B0080937C00109289001092A7
:1003F0008B0010928A0080917B006AE0D3D0E82FB6
:10040000F0E0E45CFF4FE49080917B00CBD0E92FDB
:10041000F0E0E45CFF4FF490789411E001E03DE6F9
:10042000C32E30E0D32E29E1922E93E7A92E90E03F
:10043000B92E86E9882ECAEFD0E0112331F11130B0
:1004400009F076C0809189008130C9F4109385004D
:10045000D0928700C0928600E0918600F0918700DC
:1004600080818093880096BE80B7806180BF1092A3
:10047000840010928B0010928A001092890004DF91
:10048000882309F456C010E054C0FEDE809183003A
:10049000823079F58091810088232CF18091810050
:1004A00090E08A300CF091E09017E9F0009385001D
:1004B000B0928700A0928600E0918600F0918700BC
:1004C00080818093880086BE80B7806180BF109253
:1004D00084008091810060917B00992787FD909531
:1004E0008050904073D08091810080938200109260
:1004F000830080917B008823E1F400938500D092F3
:100500008700C0928600E0918600F091870080818C
:100510008093880096BE80B7806180BF109284006F
:1005200010928B0010928A001092890000937E0036
:1005300011E090917B0080917C009817A9F0809148
:100540007B006AE02FD0E82FF0E0E45CFF4FE490FE
:1005500080917B0027D0E92FF0E0E45CFF4FF4901E
:1005600080917B0080937C00F8BAC79ACE010197F6
:10057000F1F7E8BA969ACE010197F1F796985DCF18
:100580005527002480FF02C0060E571F660F771FF5
:100590006115710521F096958795009799F7952F2C
:1005A000802D0895991B79E004C0991F961708F0D3
:1005B000961B881F7A95C9F780950895E199FECF1B
:1005C0001FBA8EBBE09A99278DB30895262FE19923
:1005D000FECF1CBA1FBA8EBB2DBB0FB6F894E29AA1
:0C05E000E19A0FBE01960895F894FFCF39
:1005EC003417D007630164C819960102FF14FD1477
:0A05FC00FD14FF0AF60AFF01FCFCE3
:00000001FF
