:1000000022C03AC039C038C038C036C035C034C04C
:1000100033C032C031C030C07BC02EC02DC02CC018
:100020002BC02AC029C0630A141E28323C46505AED
:10003000010203040506070809FE00FF4079243089
:1000400019120278001011241FBECFEDCDBF10E0B1
:10005000A0E6B0E0ECEEF5E002C005900D92AE3700
:10006000B107D9F710E0AEE7B0E001C01D92A039AA
:10007000B107E1F779D1B8C2C3CF1F920F920FB683
:100080000F9211242F933F938F939F9380917F0022
:100090008823D1F08091830090918400845397410C
:1000A00051F4109284001092830080917F0081505F
:1000B00080937F0009C08091830090918400019615
:1000C0009093840080938300209182002130B9F4C2
:1000D00080918E0090918F008C5D954039F4209333
:1000E0008D0010928F0010928E0009C080918E00BA
:1000F00090918F00019690938F0080938E009F9136
:100100008F913F912F910F900FBE0F901F901895D8
:100110001F920F920FB60F9211242F933F934F937C
:100120005F936F937F938F939F93AF93EF93FF931F
:1001300082B3A0917B0021E030E00A2E02C0220FA2
:10014000331F0A94E2F7922F9095982392BBA13027
:1001500019F48CEF80937D0080B399B349B380FD8F
:1001600002C040E007C090FD02C041E003C041FD75
:1001700011C042E08A2F992787FD909563E070E0D7
:10018000FFD1FC013397E40FF11DE05DFF4FE491D7
:10019000E0937D0082B3282B22BB8A2F8F5F809350
:1001A0007B0085304CF190917D0080917E009C3FDA
:1001B00039F08F3F09F452C08F5F80937E004EC0AC
:1001C0008250823618F481E08093870010927E007E
:1001D00085E08093860007C080918600853019F401
:1001E00082E08093870081E080937B0080917C0097
:1001F0008093850090937C00809188008823A1F5EE
:1002000080918C00882331F080918C008150809304
:100210008C002AC0E0918A00F0918B0080918900C7
:10022000E80FF11DE081EF3F39F481E08093880011
:1002300080B78F7E80BF18C0E7FF05C080B78F7E74
:1002400080BFE19503C080B7806180BFE0938C00E0
:10025000809189008F5F8093890006C080917E0025
:10026000853608F0B9CFBFCFFF91EF91AF919F9145
:100270008F917F916F915F914F913F912F910F904F
:100280000FBE0F901F90189580918700813009F064
:1002900069C08091850088232CF18091850090E0D1
:1002A0008A300CF091E09923E9F480918500992738
:1002B00087FD90958050904081D180937F00809100
:1002C0007F00843620F480917F00882351F5E091EF
:1002D0008500FF27E7FDF095EA5DFF4FE491E0938D
:1002E0007F001FC0809185008E3F59F480917F0070
:1002F000815080937F0080917F00882391F483E672
:100300000EC0809185008F3F69F580917F008F5FDF
:1003100080937F0080917F00843618F081E0809385
:100320007F0081E0809389008BE690E090938B00C2
:1003300080938A00E0918A00F0918B008081809305
:100340008C0088EC86BF80B7806180BF10928800E7
:100350001092840010928300109282001092870005
:1003600081E0089580E008958F929F92AF92BF92AE
:10037000CF92DF92EF92FF920F931F93CF93DF9371
:100380001ABA8FEF8BBB87BB18BA8EE781BB8FE1A0
:1003900082BB82E080BF83BF12BE82E886BF1CBEE4
:1003A0001FBC89E08EBD1DBC1CBC15BC14BC87E203
:1003B0008BBD80E18ABD19BC18BC80E689BF1DB821
:1003C00080E888B991E0909388008CEF8093850055
:1003D0001092870085E08093860010927F009093B2
:1003E000820080917F008093800010928D00109297
:1003F0008F0010928E0080917F006AE0D3D0E82FAA
:10040000F0E0E45CFF4FE49080917F00CBD0E92FD7
:10041000F0E0E45CFF4FF490789411E001E03DE6F9
:10042000C32E30E0D32E20E5922E97E7A92E90E040
:10043000B92E86E9882ECAEFD0E0112331F11130B0
:1004400009F076C080918D008130C9F41093890045
:10045000D0928B00C0928A00E0918A00F0918B00CC
:10046000808180938C0096BE80B7806180BF10929F
:10047000880010928F0010928E0010928D0004DF81
:10048000882309F456C010E054C0FEDE8091870036
:10049000823079F58091850088232CF18091850048
:1004A00090E08A300CF091E09017E9F00093890019
:1004B000B0928B00A0928A00E0918A00F0918B00AC
:1004C000808180938C0086BE80B7806180BF10924F
:1004D00088008091850060917F00992787FD909525
:1004E0008050904073D08091850080938600109258
:1004F000870080917F008823E1F400938900D092E7
:100500008B00C0928A00E0918A00F0918B0080817C
:1005100080938C0096BE80B7806180BF1092880067
:1005200010928F0010928E0010928D000093820026
:1005300011E090917F00809180009817A9F0809140
:100540007F006AE02FD0E82FF0E0E45CFF4FE490FA
:1005500080917F0027D0E92FF0E0E45CFF4FF4901A
:1005600080917F0080938000F8BAC79ACE010197EE
:10057000F1F7E8BA969ACE010197F1F796985DCF18
:100580005527002480FF02C0060E571F660F771FF5
:100590006115710521F096958795009799F7952F2C
:1005A000802D0895991B79E004C0991F961708F0D3
:1005B000961B881F7A95C9F780950895E199FECF1B
:1005C0001FBA8EBBE09A99278DB30895262FE19923
:1005D000FECF1CBA1FBA8EBB2DBB0FB6F894E29AA1
:0C05E000E19A0FBE01960895F894FFCF39
:1005EC003417DC05630164C850960102FF37F637F7
:0E05FC00F637F637F637FF0AF60AFF01FCFC69
:00000001FF
